:020000040800F2
:10000000D007002045010008814A0008C73E0008CB
:100010007D4A0008D10A000879530008000000005A
:10002000000000000000000000000000D94D0008A2
:10003000D50A000800000000BD4A0008194E00085B
:100040005F0100085F0100085F0100085F01000810
:100050005F0100085F0100085F0100085F01000800
:100060005F0100085F0100085F0100085F010008F0
:100070005F0100085F0100085F0100085F010008E0
:100080005F0100085F0100085F0100085F010008D0
:100090005F0100085F0100085F0100085F010008C0
:1000A0005F0100085F0100085F0100085F010008B0
:1000B0005F010008014F00085F0100085F010008B0
:1000C0005F0100085F0100085F0100085F01000890
:1000D000B54D00085F0100085F010008515300089A
:1000E0005F010008E94A00085F0100085F0100089D
:1000F0005F0100085F0100085F0100085F01000860
:100100005F0100085F0100085F0100085F0100084F
:100110005F0100085F010008114F00085F0100083F
:100120005F0100085F0100085F0100085F0100082F
:10013000DFF80CD000F0B2FB00480047195B000864
:10014000D00700200648804706480047FEE7FEE744
:10015000FEE7FEE7FEE7FEE7FEE7FEE7FEE7FEE777
:10016000A94E000831010008202A04DB203A21FAB8
:1001700002F00021704721FA02F3D040C2F12002C0
:10018000914008431946704740EA01039B0703D09A
:1001900009E008C9121F08C0042AFAD203E011F8C6
:1001A000013B00F8013B521EF9D27047D2B201E088
:1001B00000F8012B491EFBD270470022F6E710B56C
:1001C00013460A4604461946FFF7F0FF204610BDC5
:1001D00080EA010210B502F00043400022D04A003C
:1001E0001FD0010E01EB1261C0F35600C2F356029C
:1001F00040F4000042F40002A0FB022000047F391A
:10020000140400D0401C50EA124001D44000491EA2
:10021000C2B20C0604EBD010401C4008802A02D069
:1002200003E0002010BD20F00100002900DA0020CA
:10023000184310BD30B480EA010202F0004530F0EE
:10024000004221F0004013D090B1C30DD40DC2F391
:100250001601C0F31600E41A41F4000140F4000254
:100260007D34914201D3641C00E04900002C02DA85
:1002700030BC002070474FF400000023914201D3AE
:10028000891A034340084FEA4101F7D151B1914225
:1002900002D14FF0004105E002D24FF0010101E030
:1002A0006FF0010103EBC450284430BC00F033BAB6
:1002B0002DE9FE4F804681EA0300C00F0C460090F6
:1002C00021F0004123F00045B8EB0200A94105D21E
:1002D0004046214690461C460B46024623F000400D
:1002E000104347D0270DC7F30A00C3F30A51029009
:1002F000401A019040286BDAC3F3130040F4801BCE
:100300000098924620B10023D2EB030A63EB0B0B5B
:1003100001985946C0F14002504600F0DBF906460C
:100320000D4650465946019A00F0E3F910EB0800DB
:100330006141002487EA115284EAE7731A4340D0EE
:10034000009A62B3019A012A4FEA075215DC001B9A
:1003500061EB02014FF0004202EA0752CDE9004290
:10036000001C41F5801132462B4600F01AFA03B00A
:10037000BDE8F08F40462146F9E7001B61EB020122
:10038000001C41F5801300185B412018A2F50017EE
:1003900047EB030140EAD570B6196D4111E06D08D5
:1003A0004FEA360645EAC0754FEA0752001B61EB7B
:1003B0000201001C41F5801149084FEA3000001984
:1003C000514132462B4603B0BDE8F04F00F0DAB998
:1003D0000098012240000023D0EB020263EBE0739F
:1003E000009821464FEAE074B8EB000061EB04018D
:1003F000E9E783F000435BE781F0004158E72DE92E
:10040000FE4F81EA030404F0004421F0004100940F
:100410004FF0000B23F0004350EA01045ED052EA93
:1004200003045BD0C3F30A54C1F30A552C44A4F26D
:10043000F3340194A0FB0254C1F3130141F4801181
:10044000C3F3130343F4801301FB024400FB034E88
:10045000840A970A44EA815447EA8357A4FB076851
:1004600002958D0A05FB07854FEA932C04FB0C547B
:100470002705029D4FEA065847EA1637B5EB0805EF
:100480006EEB070C870E920E47EA811742EA831241
:10049000A7FB0201B6EB0B0164EB00042B0D43EA52
:1004A0000C335E1844EB1C50DA465146E7FB020160
:1004B000C5F313044FEA0B3343EA14534FEA0432F3
:1004C000019C43EA0603A4F10C040294009CCDE9CC
:1004D00000B400F066F903B0BDE8F08F00200146DB
:1004E000F9E72DE9F04D81EA030404F0004B21F017
:1004F000004514464FF0000A23F0004150EA05027F
:1005000020D054EA01021DD0C5F30A570246C5F3B4
:100510001303C1F31300C1F30A5640F4801543F4EA
:100520008013A7EB0608101BD64608F2FD3873EBC4
:10053000050002D308F1010801E092185B41B8F10F
:10054000000F03DA00200146BDE8F08D00204FF4D3
:100550008011064684460EE0171B73EB050705D392
:10056000121B63EB050306434CEA010C49084FEAF2
:10057000300092185B4150EA0107EDD152EA0300C6
:1005800012D082EA040083EA0501084305D0101B5B
:10059000AB4106D20122002306E000224FF00043C7
:1005A00002E06FF0010253101AEB06004CEB085109
:1005B00010EB0A0041EB0B01BDE8F04D00F0E2B892
:1005C00096230022114600F0AFB80EB5C10F80EAA5
:1005D000E0700844CA07002140F233438DE80E0062
:1005E0000A460B4600F0DDF803B000BD0EB540F240
:1005F000334102910021CDE900110A460B4600F07B
:10060000D0F803B000BD00F0004220F00040C10D62
:10061000C0F3160040F400007F2901DA0020704783
:10062000962903DCC1F19601C84001E09639884063
:10063000002AF4D04042704720F00040C10DC0F3C2
:10064000160040F400007F2901DA00207047962947
:1006500003DCC1F19601C840704796398840704765
:1006600000F0004230F000400AD0C10D01F5607189
:10067000C0F3160042EA0151C20840071143704717
:1006800000200146704701F0004330B421F00041E2
:1006900050EA010206D00A0DA2F56072C1F31301FF
:1006A000002A02DC30BC00207047440F44EAC10439
:1006B000C100E01830BC00EBC25000F02CB80000C4
:1006C000002801DBC0F10040002901DBC1F100413D
:1006D00081427047202A04DB203A00FA02F1002010
:1006E00070479140C2F1200320FA03F31943904070
:1006F0007047202A06DBCB17203A41FA02F043EA82
:10070000E07306E041FA02F3D040C2F120029140CA
:100710000843194670470029A8BF7047401C49008C
:1007200008BF20F00100704710B4B0FA80FC00FA56
:100730000CF050EA010404BF10BC704749B1CCF181
:10074000200421FA04F411FA0CF118BF012121430D
:100750000843A3EB0C01CB1D4FEA00614FEA1020C8
:1007600042BF002010BC704700EBC350104400296A
:10077000A4BF10BC7047401C490008BF20F0010016
:1007800010BC704710B5141E73F1000408DA401C49
:1007900041F1000192185B411A4301D120F00100A0
:1007A00010BD2DE9F04D92469B4611B1B1FA81F290
:1007B00002E0B0FA80F220329046FFF78BFF044649
:1007C0000F4640EA0A0041EA0B0153465A460843E5
:1007D00013D0114653EA010019D0C8F14002504627
:1007E000FFF7C2FC05460E46504659464246FFF703
:1007F00071FF084305D0012004E020463946BDE8DA
:10080000F08D0020054346EAE0762C4337430A98F2
:100810006305E40AA0EB08000022FD0A44EA4754FD
:100820000A3002D500200146E9E7010510196941A7
:10083000DDE9084500196941BDE8F04DA2E770B552
:1008400021F0004303430CD0C1F30A550024D5EB3B
:10085000040564EB0403D617AD1AB34102DB002094
:10086000014670BD201841EB025170BD30B5041E29
:1008700071F1000404DB4FF00044404264EB0101DD
:10088000141E73F1000405DB1C464FF00043524276
:1008900063EB0403994208BF904230BD064C074DFC
:1008A00006E0E06840F0010394E807009847103440
:1008B000AC42F6D3FFF740FCC8720008E8720008AB
:1008C0002DE9F04D00231A461B1A8A4103DB002054
:1008D0000146BDE8F08DC1F30A52C1F3130141F4A2
:1008E00080154FF0000BD10702D100186D41521E48
:1008F0000027044640F2FF11384601EB620A3E46EB
:100900008046024600204FF48011FFF72DFCC219EB
:100910007141BB1846EB0100B4EB030C75EB000C06
:1009200004D3E41A65EB000517460E46241908F1B6
:1009300001006D4180463428E3DDF91946EB0600DD
:10094000091BA84103D24FF0FF32134601E00022F9
:1009500013461BEB070046EB0A51BDE8F04DFFF7CD
:1009600011BF70B5044600252068806800F00100C2
:10097000F0B12068806820F001002168886000F0F4
:1009800057FE05460EE000F053FE401B022809D931
:10099000A06A40F01000A062E06A40F00100E0624E
:1009A000012070BD2068806800F001000028EAD1B5
:1009B0000020F6E738B504460025002000902068A6
:1009C000806800F0010080BB2068806840F0010072
:1009D00021688860164800681649B0FBF1F0009065
:1009E00002E00098401E009000980028F9D100F025
:1009F0001FFE054613E000F01BFE401B02280ED927
:100A0000A06A40F01000A062E06A40F00100E062DD
:100A100000BF002084F8240000BF012038BD2068FA
:100A2000806800F001000028E5D00020F6E7000013
:100A30007C00002040420F00FEB5054600BF00BF0D
:100A40000020009000226946204802F0F9F99DF844
:100A500000004FF4616148439DF80110C1EB0111A2
:100A600000EB81009DF802104618741900200290D6
:100A70004FF46160B4FBF0F01821B0FBF1F201FB20
:100A800012008DF804004FF46160B4FBF0F100FB3C
:100A900011403C21B0FBF1F0C0B28DF805004FF4DD
:100AA0006160B4FBF0F100FB11403C21B0FBF1F2BE
:100AB00001FB12008DF80600002201A9034802F094
:100AC000D1FA08B100F0D0F8FEBD0000CC01002042
:100AD00000BFFEE77047000070B570240022114689
:100AE000204600F086F8051E01DA284670BD094848
:100AF00001F094FB4FF4FA7000F0E0FB0648006848
:100B0000012804D10020044908600120EEE70020FC
:100B1000ECE70000C0010020480000202DE9F04172
:100B2000642000F0CBFB184801F078FB4020174907
:100B30000870084644788578E01C0E5CE11C134878
:100B400000F040F80746BE4208D0002211460420BB
:100B500000F04FF800200E49087013E0022D02D07B
:100B6000032D0AD103E001200949087009E005F0CE
:100B7000CDFD00200649087003E0002004490870FC
:100B800000BF00BFBDE8F081C001002024000020AC
:100B90004000002070B506460C46154608483168EE
:100BA00001602168416061688160298881810E222D
:100BB0000146012000F01DF8C82000F07FFB70BD49
:100BC0002C01002070B502460B460024002103E0F2
:100BD000505C204484B2491C9942F9DBC4F5803052
:100BE000C61700EB16663612A0EB0626F5B22846AD
:100BF00070BD70B5C2B005460E4614462EB9002C25
:100C000003DD6FF0010042B070BD69208DF8040073
:100C1000E0B28DF805008DF80650002C05DD224667
:100C200031460DF10700FFF7AFFAE11C01A8FFF70D
:100C3000C9FFE11C01AA50546921201D1154601DF7
:100C400081B201A800F002F8DDE7000070B50546AA
:100C50000C464FF47A7322462946024803F09AF86C
:100C6000204670BD500300207047000038B5024692
:100C700000230020009000BF92F82400012801D139
:100C8000022038BD012082F8240000BF48680728F0
:100C900012D21068406B0C79641E04EB84051F248B
:100CA000AC40A0430D796D1E05EB85050C68AC408A
:100CB00020431468606327E048680D2812D210684A
:100CC000006B0C79E41F04EB84051F24AC40A043A7
:100CD0000D79ED1F05EB85050C68AC4020431468C9
:100CE000206311E01068C06A0C790D3C04EB8405A8
:100CF0001F24AC40A0430D790D3D05EB85050C6824
:100D0000AC4020431468E06208680A2812D31068D7
:100D1000C0680C780A3C04EB44050724AC40A043AF
:100D20000D780A3D05EB45058C68AC4020431468FE
:100D3000E0600FE0106800690C7804EB44050724BC
:100D4000AC40A0430D7805EB45058C68AC402043D2
:100D5000146820610868102802D00868112827D17B
:100D6000174C1068A0421ED11068806800F4000083
:100D7000F0B91068806840F400001468A06008684A
:100D8000102815D10F4800680F4CB0FBF4F000EBB1
:100D900080004000009002E00098401E0090009803
:100DA0000028F9D104E0906A40F02000906201230D
:100DB00000BF002082F8240000BF184661E7000051
:100DC000002401407C00002040420F0001460868DA
:100DD000C06C70472DE9F04104460027002500262D
:100DE000A84614B90120BDE8F081A06810B160697F
:100DF00000B100BFA06A30B90020E06284F824008E
:100E0000204600F097F82046FFF7ABFD0746A06AA2
:100E100000F01000002873D1002F7ED1A06A20F4CA
:100E2000885040F00200A0623F4AD4E9000190429D
:100E300008D1E069B0F5402F02D14FF4002002E064
:100E4000E06900E0E0690143E06841EA40000643F0
:100E5000A068B0F5807F02D0A068012802D14FF4CD
:100E6000807000E0002005436069012811D1E0682E
:100E700038B9A069401E4FF4006141EA4030054393
:100E800007E0A06A40F02000A062E06A40F00100A4
:100E9000E0622068406820F4694028432168486087
:100EA0002068806821490840304321688860A06834
:100EB000B0F5807F02D0A068012802D14FF4807085
:100EC00000E00020B0F5807F03D1208A401E4FEA69
:100ED00000582068C06A20F4700040EA08002168C9
:100EE000C8622068806812490840B04209D10020D9
:100EF000E062A06A20F0020040F00100A06211E070
:100F00000BE0A06A20F0020040F01000A062E06A4E
:100F100040F00100E062012704E0A06A40F0100008
:100F2000A062012738465EE7003C0140FDF7E1FF83
:100F3000FE0E1FFF10B586B00446002002900390FD
:100F40000490059014492068884222D100BF1348BC
:100F5000806940F40070114988610846806900F496
:100F60000070019000BF00BF00BF0846806940F0DC
:100F7000040088610846806900F00400019000BF09
:100F800000BF022002900320039002A9044800F051
:100F9000A9F906B010BD0000002401400010024075
:100FA0000008014070B50446002500BF94F82400F5
:100FB000012801D1022070BD012084F8240000BF67
:100FC0002046FFF7F7FC0546002D77D1A06A40F2D6
:100FD0000121884340F48070A0623C492068884227
:100FE00008D13B48006800F4702008B9012002E0F5
:100FF000002000E0012078B1A06A20F48010A062F7
:101000002068406800F4806000B3A06A20F40050BB
:1010100040F48050A06219E0A06A40F48010A06201
:101020002B49091F2068884203D02849206888423C
:1010300004D12748006800F4806000E0002028B157
:10104000A06A20F4005040F48050A062A06A00F42E
:10105000805020B1E06A20F00600E06201E000204C
:10106000E06200BF002084F8240000BFC01E216899
:1010700008602068806800F46020B0F5602F16D109
:1010800012492068884208D11148006800F4702095
:1010900008B9012002E0002000E0012038B12068FA
:1010A000806840F4A000216888600CE006E02068B9
:1010B000806840F480102168886004E000BF002050
:1010C00084F8240000BF284675E70000002801408E
:1010D0000424014070B50446002500BF94F82400A4
:1010E000012801D1022070BD012084F8240000BF36
:1010F0002046FFF736FC05462DB9A06A20F488503B
:1011000040F00100A06200BF002084F8240000BF6E
:101110002846E8E770B50446002594F82100022827
:1011200003D00420A0630125C1E02068006820F0FE
:101130000E00216808602068006820F00100216826
:1011400008605C492068884252D95A497839206839
:10115000884201D1012047E056496439206888421D
:1011600001D1102040E0534950392068884201D114
:10117000801539E04F493C392068884201D18014FC
:1011800032E04C4928392068884202D14FF480303F
:101190002AE0484914392068884202D14FF480106F
:1011A00022E044492068884201D140041CE04249C1
:1011B0002068884201D1012016E03F49143120689F
:1011C000884201D110200FE03B4928312068884235
:1011D00001D1801508E038493C312068884201D1AE
:1011E000801401E04FF480303349091F086051E05A
:1011F000304978392068884201D1012047E02D49E3
:1012000064392068884201D1102040E029495039D2
:101210002068884201D1801539E026493C39206890
:10122000884201D1801432E022492839206888425E
:1012300002D14FF480302AE01E49143920688842D8
:1012400002D14FF4801022E01A492068884201D16F
:1012500040041CE018492068884201D1012016E0B2
:10126000154914312068884201D110200FE012493D
:1012700028312068884201D1801508E00E493C31B0
:101280002068884201D1801401E04FF48030094980
:1012900080394860012084F8210000BF002084F8D4
:1012A000200000BF606B10B12046616B8847284664
:1012B00070BD0000800002400804024070B5044682
:1012C00000F0B6F906462546681C10B104480078BF
:1012D000054400BF00F0ACF9801BA842FAD370BDF2
:1012E000780000202DE9F847024600240020002560
:1012F0008446002700237BE14FF0010808FA03F43D
:10130000D1F8008008EA0400A0427DD1DFF8ECA209
:10131000D1F80480A8EB0A09D0453AD014DCB8F122
:10132000030F50D009DCB8F1000F31D0B8F1010F34
:101330001CD0B8F1020F49D120E0B8F1110F18D03C
:10134000B8F1120F42D11EE0B9F5881F25D006DC96
:10135000B9F5803F20D0B9F5801F37D11AE0B9F533
:10136000001F18D0B9F5041F30D117E0D1F80CC018
:101370002DE0D1F80C8008F1040C28E0D1F80C80A5
:1013800008F1080C23E0D1F80C8008F10C0C1EE0E9
:1013900000BF00BF00BF00BF00BF00BFD1F8088082
:1013A000B8F1000F02D14FF0040C0BE0D1F8088027
:1013B000B8F1010F03D14FF0080C146102E04FF0B7
:1013C000080C546103E04FF0000C00E000BF00BFC8
:1013D000FF2801D8904601E002F104084646FF28A4
:1013E00002D84FEA830803E0A3F108084FEA88080F
:1013F0004746D6F800804FF00F0909FA07F928EAA6
:1014000009080CFA07F900E07AE048EA0908C6F88A
:101410000080D1F8048008F08058B8F1805F6FD167
:1014200000BFDFF8DC81D8F8188048F00108DFF849
:10143000D091C9F81880C846D8F8188008F001087B
:10144000CDF8008000BF00BF4FEAB9384FEA9309DA
:1014500058F829504FEA83784FEA18794FF00F086F
:1014600008FA09F825EA0805DFF89881424502D113
:101470004FF0000824E0DFF89081424502D14FF0A0
:1014800001081DE0DFF88481424502D14FF00208D7
:1014900016E0DFF87C81424502D14FF003080FE0EF
:1014A000DFF87081424502D14FF0040808E0DFF810
:1014B0006881424502D14FF0050801E04FF006086F
:1014C0004FEA83794FEA197908FA09F848EA0505DD
:1014D000DFF848814FEA930948F82950D1F8048091
:1014E00008F48038B8F5803F0BD1DFF83481D8F8A4
:1014F000008048EA0008DFF82891C9F800800AE077
:1015000075E0DFF81C81D8F8008028EA0008DFF8D1
:101510001091C9F80080D1F8048008F40038B8F5BB
:10152000003F0ED1DFF8F88008F10408D8F80080F9
:1015300048EA0008DFF8E89009F10409C9F80080DA
:101540000DE0DFF8DC8008F10408D8F8008028EA14
:101550000008DFF8CC9009F10409C9F80080D1F83F
:10156000048008F48018B8F5801F0ED1DFF8B08031
:1015700008F10808D8F8008048EA0008DFF8A090D1
:1015800009F10809C9F800800DE0DFF8948008F13E
:101590000808D8F8008028EA0008DFF8849009F1EC
:1015A0000809C9F80080D1F8048008F40018B8F5DB
:1015B000001F0ED1DFF8688008F10C08D8F8008011
:1015C00048EA0008DFF8589009F10C09C9F80080D2
:1015D0000DE0DFF84C8008F10C08D8F8008028EA0C
:1015E0000008DFF83C9009F10C09C9F800805B1C89
:1015F000102BFFF481AEBDE8F88700000000111049
:101600000010024000080140000C014000100140A1
:101610000014014000180140001C01400800014076
:10162000000401400AB1016101E00B04036170474D
:1016300001480068704700007000002070B5044643
:10164000002600250CB9012070BD94F83D0028B992
:10165000002084F83C00204600F07EFD242084F821
:101660003D002068006820F001002168086001F05A
:1016700017F905464C496068884206D84B488542B0
:1016800001D2012007E0002005E04948854201D24F
:10169000012000E00020012800D1D5E74548B5FB36
:1016A000F0F62068466040496068884201D8701CA6
:1016B00007E04FF4967070434FF47A71B0FBF1F08D
:1016C000401C2168086238496068884214D8681E46
:1016D00061684900B0FBF1F0401CC0F30B00042826
:1016E00001D204203DE0681E61684900B0FBF1F0C2
:1016F000401CC0F30B0034E0A06838B9681E616874
:1017000001EB4101B0FBF1F0401C0AE0681E61688A
:1017100001EBC10202EB0111B0FBF1F0401C40F4FF
:101720008040C0F30B0008B901201AE0A06848B956
:10173000681E616801EB4101B0FBF1F0401CC0F391
:101740000B000CE0681E616801EBC10202EB0111A5
:10175000B0FBF1F0401CC0F30B0040F4804040F4BB
:1017600000402168C861D4E9070108432168086086
:10177000D4E90310084321688860D4E905010843CF
:101780002168C8602068006840F001002168086096
:1017900000202064202084F83D000020206384F88D
:1017A0003E0000BF50E70000A086010080841E00BC
:1017B00000093D0040420F002DE9F84304468946E8
:1017C00017469846089E0025FFF732FF054694F815
:1017D0003D0020287ED119230122C34920460095CF
:1017E00002F0CDFD10B10220BDE8F88300BF94F8EF
:1017F0003C00012801D10220F6E7012084F83C00DA
:1018000000BF2068006800F0010028B92068006867
:1018100040F00100216808602068006820F4006042
:1018200021680860222084F83D00102084F83E00E2
:10183000002020646762A4F82A80AC48E062608DD2
:1018400020852B4632464946204602F059FB80B19E
:10185000206C042806D100BF002084F83C0000BFA3
:101860000120C1E700BF002084F83C0000BF032036
:10187000BAE7208D88B900BF002000902068406939
:10188000009020688069009000BF00BF2068006859
:1018900040F40070216808604BE0208D01281AD1C7
:1018A0002068006820F480602168086072B600BF7C
:1018B00000200090206840690090206880690090B6
:1018C00000BF00BF2068006840F400702168086015
:1018D00062B62EE005E1208D022819D1206800684B
:1018E00040F400602168086072B600BF00200090DC
:1018F00020684069009020688069009000BF00BFA8
:101900002068006820F480602168086062B610E0FA
:101910002068006840F480602168086000BF0020F3
:10192000009020684069009020688069009000BFA6
:1019300000BFC7E0208D032875D8208D01281AD15B
:101940002A463146204602F0AEFD30B1206C2028F8
:1019500001D1032048E7012046E720680069C1B2B1
:10196000626A501C60621170208D401E2085608D5F
:10197000401E6085A6E0208D02282CD1334600222F
:101980005B492046009502F0FAFC08B103202BE7E2
:1019900072B62068006840F4007021680860206812
:1019A0000069C1B2626A501C60621170208D401ED5
:1019B0002085608D401E608562B620680069C1B2D6
:1019C000626A501C60621170208D401E2085608DFF
:1019D000401E608576E0334600224549204600954A
:1019E00002F0CDFC08B10320FEE62068006820F478
:1019F00080602168086072B620680069C1B2626ABE
:101A0000501C60621170208D401E2085608D401E2C
:101A100060853346002236492046009502F0AFFC2F
:101A200010B10320E0E621E02068006840F4007077
:101A30002168086020680069C1B2626A501C606257
:101A40001170208D401E2085608D401E608562B61D
:101A500020680069C1B2626A501C60621170208DFA
:101A6000401E2085608D401E60852BE02A46314651
:101A7000204602F018FD30B1206C202801D103204F
:101A8000B2E60120B0E620680069C1B2626A501C6B
:101A900060621170208D401E2085608D401E608523
:101AA00020684069C0F3800060B120680069C1B25D
:101AB000626A501C60621170208D401E2085608D0E
:101AC000401E6085208D00287FF434AF202084F8EC
:101AD0003D00002084F83E0000BF84F83C0000BFB9
:101AE00082E6022080E60000020010000000FFFFF6
:101AF000040001002DE9F8430446894616461F46B6
:101B0000DDF820800025FFF793FD054694F83D00A1
:101B100020287DD11923012259492046009502F041
:101B20002EFC10B10220BDE8F88300BF94F83C0001
:101B3000012801D10220F6E7012084F83C0000BF13
:101B40002068006800F0010028B92068006840F0B3
:101B50000100216808602068006820F400602168A6
:101B60000860212084F83D00102084F83E00002009
:101B70002064666267854348E062608D20852B465D
:101B800042464946204602F053FA80B1206C0428B0
:101B900006D100BF002084F83C0000BF0120C2E74E
:101BA00000BF002084F83C0000BF0320BBE700BF5B
:101BB00000200090206840690090206880690090B3
:101BC00000BF00BF46E02A464146204602F0A2FC84
:101BD00060B1206C042807D12068006840F40070D0
:101BE0002168086001209EE703209CE7616A481C89
:101BF0006062087821680861608D401E6085208DD4
:101C0000401E208520684069C0F3800078B100E064
:101C100034E0208D58B1616A481C60620878216800
:101C20000861608D401E6085208D401E20852A46FB
:101C30004146204602F078FB60B1206C042807D1B1
:101C40002068006840F400702168086001206AE79D
:101C5000032068E7208D0028B5D12068006840F493
:101C6000007021680860202084F83D00002084F87E
:101C70003E0000BF84F83C0000BF54E7022052E75A
:101C8000020010000000FFFF2DE9FC5F04460F4634
:101C900090469946DDE90CAB0E9E0025FFF7C8FC87
:101CA000054694F83D0020287ED119230122C5491C
:101CB0002046009502F063FB10B10220BDE8FC9FB6
:101CC00000BF94F83C00012801D10220F6E7012072
:101CD00084F83C0000BF2068006800F0010028B9CB
:101CE0002068006840F001002168086020680068F2
:101CF00020F4006021680860222084F83D00402024
:101D000084F83E0000202064C4F824A0A4F82AB07F
:101D1000AD48E062608D20854B46424639462046FC
:101D2000CDE9006502F0E4F980B1206C042806D109
:101D300000BF002084F83C0000BF0120BEE700BFC8
:101D4000002084F83C0000BF0320B7E7208D88B94D
:101D500000BF0020019020684069019020688069E0
:101D6000019000BF00BF2068006840F40070216847
:101D700008604CE0208D01281BD12068006820F409
:101D800080602168086072B600BF00200190206862
:101D90004069019020688069019000BF00BF206801
:101DA000006840F4007000E009E12168086062B654
:101DB0002DE0208D022819D12068006840F40060D1
:101DC0002168086072B600BF002001902068406959
:101DD000019020688069019000BF00BF2068006802
:101DE00020F480602168086062B610E02068006816
:101DF00040F480602168086000BF002001902068E6
:101E00004069019020688069019000BF00BFC7E071
:101E1000208D032875D8208D01281AD12A463146F5
:101E2000204602F040FB30B1206C202801D1032075
:101E300044E7012042E720680069C1B2626A501C91
:101E400060621170208D401E2085608D401E60856F
:101E5000A6E0208D02282CD1334600225B49204683
:101E6000009502F08CFA08B1032027E772B62068CB
:101E7000006840F400702168086020680069C1B201
:101E8000626A501C60621170208D401E2085608D3A
:101E9000401E608562B620680069C1B2626A501C4B
:101EA00060621170208D401E2085608D401E60850F
:101EB00076E03346002245492046009502F05FFA5D
:101EC00008B10320FAE62068006820F480602168E9
:101ED000086072B620680069C1B2626A501C606214
:101EE0001170208D401E2085608D401E6085334618
:101EF000002236492046009502F041FA10B1032035
:101F0000DCE621E02068006840F400702168086089
:101F100020680069C1B2626A501C60621170208D35
:101F2000401E2085608D401E608562B62068006975
:101F3000C1B2626A501C60621170208D401E208503
:101F4000608D401E60852BE02A463146204602F017
:101F5000AAFA30B1206C202801D10320AEE601207E
:101F6000ACE620680069C1B2626A501C6062117000
:101F7000208D401E2085608D401E60852068406950
:101F8000C0F3800060B120680069C1B2626A501C71
:101F900060621170208D401E2085608D401E60851E
:101FA000208D00287FF434AF202084F83D000020ED
:101FB00084F83E0000BF84F83C0000BF7EE60220AB
:101FC0007CE60000020010000000FFFF040001009A
:101FD0002DE9FC5F04460F4690469946DDE90CABBF
:101FE0000E9E0025FFF724FB054694F83D002028AF
:101FF0007ED11923012256492046009502F0BFF9EF
:1020000010B10220BDE8FC9F00BF94F83C000128FD
:1020100001D10220F6E7012084F83C0000BF2068CF
:10202000006800F0010028B92068006840F0010055
:10203000216808602068006820F40060216808605A
:10204000212084F83D00402084F83E0000202064D8
:10205000C4F824A0A4F82AB03E48E062608D208530
:102060004B46424639462046CDE9006502F0ECF881
:1020700080B1206C042806D100BF002084F83C0009
:1020800000BF0120BEE700BF002084F83C0000BF75
:102090000320B7E733E02A463146204602F03AFAF9
:1020A00060B1206C042807D12068006840F40070FB
:1020B000216808600120A5E70320A3E7616A481CA6
:1020C0006062087821680861208D401E2085608D3F
:1020D000401E608520684069C0F3800078B1208D83
:1020E00068B1616A481C606208782168086100E094
:1020F0002CE0208D401E2085608D401E6085208D47
:102100000028C8D12A463146204602F00DF960B1B8
:10211000206C042807D12068006840F40070216812
:10212000086001206EE703206CE72068006840F437
:10213000007021680860202084F83D00002084F8A9
:102140003E0000BF84F83C0000BF5BE7022059E777
:10215000020010000000FFFF10B586B0044600200A
:10216000029003900490059015492068884225D17B
:1021700000BF1448806940F0080012498861084691
:10218000806900F00800019000BF00BFC0200290ED
:10219000122003900320059002A90B48FFF7A2F834
:1021A00000BF0848C06940F400100649C8610846ED
:1021B000C06900F40010019000BF00BF06B010BD60
:1021C0000054004000100240000C014070B504466D
:1021D0000CB9012070BD4CF6CC402168086045F276
:1021E000555021680860D4E9001048602168A06853
:1021F0008860FFF71DFA054606E0FFF719FA401B55
:10220000302801D90320E5E72068C0680028F4D110
:102210004AF6AA20216808600020DBE701464AF65A
:10222000AA200A6810600020704700000348006878
:10223000034909780844014908607047700000208C
:102240007800002010B50848006840F010000649EA
:102250000860032000F0C4F8002000F007F800F048
:1022600049F8002010BD00000020024070B588B081
:10227000044600250026002221461D2000F071F8AA
:102280001D2000F061F800BF1648C06940F0020050
:102290001449C8610846C06900F00200019000BFFF
:1022A00000BF02A903A800F0D3FA00F0F9FA450034
:1022B0000D48B5FBF0F0461E0C480D49086040F291
:1022C000E7310B48C160466000210161816001F087
:1022D000A0F920B9064801F0D9F908B070BD012075
:1022E000FBE700000010024040420F0000040040E5
:1022F0009003002008B500BF1148806940F001003C
:102300000F4988610846806900F00100009000BF15
:1023100000BF00BF0846C06940F08050C861084651
:10232000C06900F08050009000BF00BF00BF0549A9
:10233000486820F0E06040F00070486000BF08BDD1
:10234000001002400000014000BF00F01F02012108
:1023500091404209920002F1E022C2F8001100BF50
:1023600070472DE9F05F80460D461646002702F0C3
:1023700089FB074639462A46334601F00700C0F17B
:10238000070ABAF1040F02D94FF0040A01E0C0F1C4
:10239000070AD14600F1040ABAF1070F02D24FF042
:1023A000000A01E0A0F1030AD4464FF0010A0AFA3C
:1023B00009FAAAF1010A0AEA020A0AFA0CFA4FF02B
:1023C000010B0BFA0CFBABF1010B0BEA030B4AEA16
:1023D0000B042146404602F05DFBBDE8F09F000083
:1023E00000BF00F00702064B19684FF6FF031940C3
:1023F000044B0B4343EA0221014B196000BF7047B5
:102400000CED00E00000FA05012001490862704768
:1024100000000E422DE9F04385B0064644A30FCBE1
:1024200001AC0FC446A0006800904FF000080025E2
:1024300000270024A146042E36D004DC012E3BD018
:10244000022E6FD162E0082E32D0102E6AD13D48A4
:102450004468006800F0807000B301A8C4F38341B1
:10246000475C04F4803070B136484068C0F34040A7
:102470001DF8008004F4803040B13348B0FBF8F020
:1024800000FB07F502E0314807FB00F52D484068E6
:1024900000F48000B0F5800F01D1A94603E0680088
:1024A0000321B0FBF1F93EE000F01AFA81463AE070
:1024B00000F016FA814636E02248046A04F44070BF
:1024C000B0F5807F05D104F0020010B14FF400494F
:1024D0001BE004F44070B0F5007F07D11948406A52
:1024E00000F0020010B149F640490EE004F44070DB
:1024F000B0F5407F07D11348006800F4003010B1F8
:102500004FF2244901E04FF000090CE000F0D8F947
:102510000C494968C1F38131491C4900B0FBF1F90C
:1025200001E0FFE700BF00BF484605B0BDE8F0830B
:1025300002030405060708090A0B0C0D0E0F101004
:10254000010200000010024000127A0000093D0064
:10255000F8B5044600260025207800F00100002888
:102560006BD000274348C06900F0805070B900BFAD
:102570004048C06940F080503E49C8610846C06983
:1025800000F08050009000BF00BF01273A4800686B
:1025900000F48070B0B93848006840F48070364963
:1025A0000860FFF745F8064606E0FFF741F8801B94
:1025B000642801D90320F8BD2F48006800F480701A
:1025C0000028F2D02B48006A00F440752DB3A08893
:1025D00000F44070A84220D02648006A20F44075DC
:1025E000012026490860002008602248056205F0A5
:1025F000010090B1FFF71CF8064608E0FFF718F855
:10260000801B41F28831884201D90320D3E7194861
:10261000006A00F002000028F0D01648006A20F49A
:1026200040706168084313490862012F04D10846CD
:10263000C06920F08050C86100BF207800F002001F
:10264000022807D10B48406820F44040A1680843A5
:1026500008494860207800F01000102807D105488C
:10266000406820F480006169084302494860002006
:10267000A1E7000000100240007000404004424208
:1026800070B504460D4600266D48006800F007004E
:10269000A8420ED26A48006820F007002843684923
:1026A00008600846006800F00700A84201D0012039
:1026B00070BD207800F0020002281DD1207800F0C3
:1026C0000400042805D15F48406840F4E0605D499B
:1026D0004860207800F00800082805D15948406873
:1026E00040F46050574948605648406820F0F00078
:1026F000A168084353494860207800F00100002891
:102700005DD06068012806D14E48006800F40030B2
:1027100090B90120CCE76068022806D149480068DA
:1027200000F0007040B90120C2E74648006800F0A0
:10273000020008B90120BBE74248406820F00300CE
:10274000616808433F494860FEF772FF06466068CB
:10275000012810D108E0FEF76BFF801B41F28831A1
:10276000884201D90320A3E73648406800F00C00F6
:102770000428F0D123E06068022810D108E0FEF7B9
:1027800057FF801B41F28831884201D903208FE72F
:102790002C48406800F00C000828F0D10FE008E059
:1027A000FEF746FF801B41F28831884201D90320A1
:1027B0007EE72448406800F00C000028F0D1204853
:1027C000006800F00700A8420ED91D48006820F0FC
:1027D000070028431A4908600846006800F007000F
:1027E000A84201D0012063E7207800F0040004280B
:1027F00007D11448406820F4E060E16808431149BB
:102800004860207800F00800082808D10D4840688A
:1028100020F46050216940EAC1000A49486000F094
:102820005FF808494968C1F30311074A515CC84081
:10283000064908600020FFF719FD002038E7000076
:1028400000200240001002401E7200087C000020A0
:102850000F2202600D4A526802F0030242600B4AE6
:10286000526802F0F0028260084A526802F4E062A4
:10287000C260064A526802F46052D2080261044AF9
:10288000126802F007020A60704700000010024060
:102890000020024001480068704700007C000020D2
:1028A00000B5FFF7F7FF04494968C1F30221034A65
:1028B000515CC84000BD0000001002402E720008AC
:1028C00000B5FFF7E7FF04494968C1F3C221034A95
:1028D000515CC84000BD0000001002402E7200088C
:1028E000F0B585B00FF26C0C9CE8E01001A8A0E8F0
:1028F000E0101CA52D680095002100220023002473
:102900000020194D696801F00C05F5B1042D02D0C5
:10291000082D19D101E0154819E001ADC1F3834636
:10292000AC5D01F4803555B10F4D6D68C5F3404580
:102930001DF805200D4D6543B5FBF2F302E00C4D8B
:1029400004FB05F3184602E000BF084800BF00BFC3
:1029500005B0F0BD02030405060708090A0B0C0DBB
:102960000E0F1010010200000010024000127A0049
:1029700000093D00F8B504460025207800F001006C
:10298000002878D0F848406800F00C0004280CD0EB
:10299000F548406800F00C00082811D1F248406862
:1029A00000F48030B0F5803F0AD1EF48006800F4B1
:1029B000003000285FD0606800285CD10120F8BD9D
:1029C00000BF6068B0F5803F06D1E748006840F47A
:1029D0008030E549086028E0606858B9E24800683E
:1029E00020F48030E04908600846006820F4802028
:1029F00008601AE06068B0F5A02F0BD1DA480068D3
:102A000040F48020D84908600846006840F48030CF
:102A100008600AE0D448006820F48030D249086099
:102A20000846006820F48020086000BF606888B114
:102A3000FEF7FEFD054606E0FEF7FAFD401B6428A2
:102A400001D90320BBE7C848006800F40030002823
:102A5000F2D010E0FEF7ECFD054606E0FEF7E8FDDB
:102A6000401B642801D90320A9E7BF48006800F48F
:102A700000300028F2D1207800F00200022857D15F
:102A8000B948406800F00C0050B1B748406800F009
:102A90000C00082818D1B448406800F4803098B978
:102AA000B148006800F0020020B12069012801D07F
:102AB000012084E7AC48006820F0F800616940EA32
:102AC000C100A949086033E02069E8B10120A749A5
:102AD0000860FEF7ADFD054606E0FEF7A9FD401BC8
:102AE000022801D903206AE79F48006800F002002D
:102AF0000028F2D09C48006820F0F800616940EAA4
:102B0000C1009949086013E0002098490860FEF769
:102B10008FFD054606E0FEF78BFD401B022801D91C
:102B200003204CE79048006800F002000028F2D132
:102B3000207800F0080008282DD1A069B8B1012044
:102B40008B490860FEF774FD054606E0FEF770FD50
:102B5000401B022801D9032031E78348406A00F076
:102B600002000028F2D0012001F0AAFF13E00020AB
:102B70007F490860FEF75CFD054606E0FEF758FD5C
:102B8000401B022801D9032019E77748406A00F06A
:102B900002000028F2D1207800F00400042873D14C
:102BA00000267148C06900F0805070B900BF6E48BF
:102BB000C06940F080506C49C8610846C06900F0A7
:102BC0008050009000BF00BF01266A48006800F4F2
:102BD0008070B0B96748006840F48070654908604B
:102BE000FEF726FD054606E0FEF722FD401B6428A1
:102BF00001D90320E3E65F48006800F480700028F4
:102C0000F2D000BFE068012806D15748006A40F0C2
:102C100001005549086227E0E06858B95248006A47
:102C200020F00100504908620846006A20F00400C4
:102C3000086219E0E06805280BD14B48006A40F0B3
:102C40000400494908620846006A40F00100086231
:102C50000AE04548006A20F001004349086208463E
:102C6000006A20F00400086200BFE068A0B1FEF72F
:102C7000DFFC054609E0FEF7DBFC401B41F2883132
:102C8000884202D903209AE622E03748006A00F021
:102C900002000028EFD012E0FEF7CAFC054608E06B
:102CA000FEF7C6FC401B41F28831884201D903205F
:102CB00085E62D48006A00F002000028F0D1012EC0
:102CC00005D12948C06920F080502749C86100BF5C
:102CD000E069C8B32448406800F00C00082860D0C0
:102CE000E069022848D1002020490866FEF7A0FCD0
:102CF000054606E0FEF79CFC401B022801D9032094
:102D00005DE61948006800F000700028F2D1206AE2
:102D1000B0F5803F07D11448406820F40030A16826
:102D2000084311494860D4E9080108430E4949683D
:102D300021F4741108430C49486001200B490866CE
:102D4000FEF776FC054607E02DE0FEF771FC401B20
:102D5000022801D9032032E60348006800F0007021
:102D60000028F2D01FE000000010024000004242A4
:102D7000800442420070004000200C490866FEF7C3
:102D800057FC054606E0FEF753FC401B022801D91C
:102D9000032014E60648006800F000700028F2D115
:102DA00001E001200BE6002009E60000000042429D
:102DB00000100240014609B90120704700BF087C9D
:102DC000012801D10220F8E70120087400BF022089
:102DD00048740868006840F001000A68106001202B
:102DE000487400BF0020087400BF00BFE5E7000082
:102DF00010B504461E20FDF71FFE01200149087092
:102E000010BD00004000002010B504462068006896
:102E1000C0F3400058B120684068C0F3400030B1B2
:102E20002046FFF7E5FF6FF00200216848604FF48D
:102E30000030024908600120607410BD1404014094
:102E40002DE9F04780460C46914600250026AA460B
:102E50000027B8F1000F00D014B90120BDE8F087B9
:102E6000D8F800004068C0F3800008B10120F5E701
:102E7000404601F015FF05464FF46160B5FBF0F7E1
:102E8000B5FBF0F100FB11503C21B0FBF1F060709C
:102E90004FF46160B5FBF0F100FB11503C21B0FB39
:102EA000F1F201FB1200A070182F39D31820B7FBE4
:102EB000F0FAB7FBF0F100FB11702070404601F012
:102EC000E3FE0646701C18B1AE4201D9761B01E044
:102ED0004FF0FF360AEB4A00C000C0EB4011C1EBD7
:102EE0000020A5EB00152946404601F04CFF08B133
:102EF0000120B3E7701C38B12E443146404601F042
:102F00002BFF40B10120A9E73146404601F024FFE4
:102F100008B10120A2E75146404601F007FE00E05B
:102F20002770B9F1000F0BD0207801F0F2FD20706E
:102F3000607801F0EEFD6070A07801F0EAFDA0700D
:102F400000208BE770B5044600250CB9012070BD48
:102F5000607C20B900202074204600F05BF802203D
:102F60006074204600F0ECF918B104206074012070
:102F7000EDE7204601F035FE18B104206074012011
:102F8000E5E72068406820F0070021684860A068F5
:102F900028B11F48006820F001001D4908601C4846
:102FA000001F006820F46070A16808431849091FD9
:102FB00008606068401C08B1656809E00120FFF7FF
:102FC00029FA05461DB9042060740120BFE76D1E73
:102FD0002068806820F00F0040EA15402168886072
:102FE0002068C06865F30F002168C860204601F0C2
:102FF00015FE18B1042060740120A8E70021E173D8
:1030000001216173A1730120607400209FE700001B
:10301000306C004038B504460F49206888421AD108
:10302000FFF7F2F900BF0D48C06940F000600B499E
:10303000C8610846C06900F00060009000BF00BF92
:10304000012007490860002211462920FFF789F96D
:103050002920FFF779F938BD002800400010024010
:103060003C0442422DE9F84304460D46174600262B
:103070000020009004B115B90120BDE8F88300BF1D
:10308000207C012801D10220F7E70120207400BF35
:1030900002206074002269462046FFF7D1FE08B185
:1030A0000120EAE79DF800004FF4616148439DF874
:1030B0000110C1EB011100EB81009DF8021000EB43
:1030C00001085FB928784FF4616148436978C1EB22
:1030D000011100EB8100A978461812E0287801F070
:1030E0000DFD4FF4616100FB01F9687801F006FD08
:1030F000C0EB001009EB8009A87801F0FFFC09EB98
:103100000006464501D2174806443146204601F0E4
:1031100023FE38B10420607400BF0020207400BF7B
:103120000120AAE76FF0020021684860206800686B
:1031300040F00200216808600B48006840F400304D
:103140000949086008480830006840F40030064922
:10315000083108600120607400BF0020207400BFA7
:1031600000BF8AE780510100000401402DE9F047CB
:1031700004460D46904600260027B14604B115B915
:103180000120BDE8F08700BF207C012801D102208A
:10319000F7E70120207400BF02206074B8F1000F2F
:1031A00006D1E978E17369786173A978A1730BE0BE
:1031B000E87801F0A3FCE073687801F09FFC60738D
:1031C000A87801F09BFCA073A27B617BE07B01F0FF
:1031D00081FD2073207B2870204601F061FD0646AA
:1031E0004FF46160B6FBF0F9B9F1180F2FD9182030
:1031F000B9FBF0F000EB4000C000C0EB4011C1EBA8
:103200000020A6EB00163146204601F0BCFD38B187
:103210000420607400BF0020207400BF0120B0E7CC
:10322000204601F031FD0746781C80B1B7420ED22E
:103230000B4807443946204601F08EFD38B1042082
:10324000607400BF0020207400BF012099E70120B6
:10325000607400BF0020207400BF00BF91E7000031
:10326000805101002DE9F04704460D4690460026A6
:10327000002704B115B90120BDE8F08700BF207C0C
:10328000012801D10220F7E70120207400BF0220AD
:103290006074B8F1000F0BD128784FF46161484396
:1032A0006978C1EB011100EB8100A978461812E0A2
:1032B000287801F023FC4FF4616100FB01F9687884
:1032C00001F01CFCC0EB001009EB8009A87801F0AC
:1032D00015FC09EB00063146204601F054FD38B1DB
:1032E0000420607400BF0020207400BF0120C3E7E9
:1032F0002068406820F0050021684860204601F001
:10330000C3FC0746781C80B1B7420ED20B48074475
:103310003946204601F020FD38B10420607400BF1A
:103320000020207400BF0120A6E70120607400BFC8
:103330000020207400BF00BF9EE700008051010004
:1033400070B5044600250CB9012070BD20684068A6
:1033500020F0080021684860FEF76AF9054607E09A
:10336000FEF766F9401BB0F57A7F01D90320ECE740
:103370002068406800F008000028F1D00020E4E751
:1033800070470000F8B504462068466820688568E4
:1033900005F0400048B905F0010030B106F04000EA
:1033A00018B12046216C8847F8BD05F0020030B105
:1033B00006F0800018B12046616C8847F4E705F0FC
:1033C0006000002866D006F02000002862D005F0DA
:1033D0004000F0B194F8510003280ED0606D40F029
:1033E0000400606500BF002000902068C068009065
:1033F00020688068009000BF0BE000BF00200090B4
:103400002068C068009020688068009000BF00BFFE
:10341000CAE705F0200088B1606D40F001006065EA
:1034200000BF00200090206880680090206800683D
:1034300020F040002168086000BF00BF606D20B32D
:103440002068406820F0E00021684860012084F88E
:10345000510006F0020010B906F00100B0B120687A
:10346000406820F0030021684860E06C28B10A48F9
:10347000E16C4863E06CFDF74DFEA06C28B1064896
:10348000A16C4863A06CFDF745FE02E02046FFF703
:1034900077FF89E700BF87E7C54D000810B50446F0
:1034A0000CB9012010BD0021A16294F8510010B99F
:1034B000204600F037F8022084F8510020680068A8
:1034C00020F0400021680860D4E901010843E16868
:1034D00008432169084361690843218B01F40071A5
:1034E0000843E1690843216A0843A16A0843216847
:1034F00008600421A06901EA1040616A084321685C
:1035000048602168E06A08612068C06920F40060B2
:103510002168C86100206065012084F85100002006
:10352000C0E7000010B586B004460020029003906A
:10353000049005901A49206888422ED100BF19488E
:10354000806940F48050174988610846806900F41A
:103550008050019000BF00BF00BF0846806940F066
:10356000040088610846806900F00400019000BFF3
:1035700000BFA0200290022003900320059002A922
:103580000948FDF7AFFE4020029000200390049010
:1035900002A90548FDF7A6FE00E000BF06B010BD79
:1035A00000300140001002400008014070477047A1
:1035B000024600BF92F83C00012801D1022070476A
:1035C000012082F83C0000BF022082F83D00106814
:1035D000406820F0700013685860106840680B68FD
:1035E0001843136858601068806820F080001368E2
:1035F0009860106880684B681843136898600120D1
:1036000082F83D0000BF002082F83C0000BF00BFF0
:10361000D5E710B504460CB9012010BD94F83D0063
:1036200028B9002084F83C00204600F00DF8022064
:1036300084F83D00211D206801F072FC012084F80F
:103640003D000020E9E7000038B504460D49206838
:10365000884215D100BF0C48C06940F010000A49EB
:10366000C8610846C06900F01000009000BF00BFAC
:10367000002211463620FEF774FE3620FEF764FE67
:1036800038BD0000001000400010024001460868EC
:10369000C06840F001000A68D0600868006840F027
:1036A00001000A68106000207047704710B504469A
:1036B00020680069C0F34000D8B12068C068C0F33A
:1036C0004000B0B16FF0020021680861012020774E
:1036D0002068806900F0030018B12046FFF7E5FF7D
:1036E00005E0204600F0ADF8204600F0ABF80020E1
:1036F000207720680069C0F38000D8B12068C068D6
:10370000C0F38000B0B16FF00400216808610220AE
:1037100020772068806900F4407018B12046FFF7D8
:10372000C4FF05E0204600F08CF8204600F08AF83F
:103730000020207720680069C0F3C000D8B120685D
:10374000C068C0F3C000B0B16FF008002168086124
:10375000042020772068C06900F0030018B12046DB
:10376000FFF7A3FF05E0204600F06BF8204600F0CD
:1037700069F80020207720680069C0F30010D8B1F4
:103780002068C068C0F30010B0B16FF0100021686D
:103790000861082020772068C06900F4407018B1E3
:1037A0002046FFF782FF05E0204600F04AF8204659
:1037B00000F048F8002020772068006900F0010040
:1037C00058B12068C06800F0010030B16FF001000E
:1037D00021680861204600F037F820680069C0F3CE
:1037E000C01058B12068C068C0F3C01030B16FF08D
:1037F0008000216808612046FFF7D8FE2068006934
:10380000C0F3801058B12068C068C0F3801030B198
:103810006FF0400021680861204600F021F8206820
:103820000069C0F3401058B12068C068C0F3401070
:1038300030B16FF02000216808612046FFF7B7FE25
:1038400010BD70477047000010B50446034920685A
:10385000884201D1FEF7EAFC10BD000000040040E0
:10386000704770472DE9F0470446206805682068D6
:10387000C668206847694FF00008C14605F00F0888
:10388000B8F1000F0AD105F0200038B106F0200091
:1038900020B1204601F0BAFBBDE8F087B8F1000F77
:1038A0006DD007F0010018B906F49070002866D0BA
:1038B00005F0010030B106F4807018B1E06B40F003
:1038C0000100E06305F0040030B107F0010018B119
:1038D000E06B40F00200E06305F0020030B107F059
:1038E000010018B1E06B40F00400E06305F008004F
:1038F00030B107F0010018B1E06B40F00800E06360
:10390000E06B68B305F0200028B106F0200010B18C
:10391000204601F07BFB20684069C0F38019E06B12
:1039200000F0080010B9B9F1000F22D0204601F0D4
:103930004DFB2068406900F04000B0B1206840694C
:1039400020F0400021684861606B50B11748616BFE
:103950004863606BFDF7DEFB10B1606B416B88471D
:103960000CE02046FFF77DFF08E02046FFF779FFD7
:1039700004E02046FFF775FF0020E0638CE705F0C8
:10398000800030B106F0800018B1204601F076FCCE
:1039900082E705F0400030B106F0400018B1204643
:1039A00001F024FB78E700BF76E70000B94F00087C
:1039B00010B504460CB9012010BDA06900B100E0AB
:1039C00000BF94F8390028B9002084F83800204658
:1039D00000F028F8242084F839002068C06820F41A
:1039E00000502168C860204601F064FB206800692F
:1039F00020F49040216808612068406920F02A0086
:103A0000216848612068C06840F400502168C8609F
:103A10000020E063202084F8390084F83A00002078
:103A2000CAE7000010B586B004460020029003905B
:103A3000049005905149206888422FD100BF50481A
:103A4000806940F480404E4988610846806900F4EE
:103A50008040019000BF00BF00BF0846806940F071
:103A6000040088610846806900F00400019000BFEE
:103A700000BF48150290022003900320059002A980
:103A80004048FDF72FFC4FF4806002900020039027
:103A9000049002A93B48FDF725FC6DE03A492068F7
:103AA00088422ED100BF3648C06940F40030344906
:103AB000C8610846C06900F40030019000BF00BF33
:103AC00000BF0846806940F00400886108468069AC
:103AD00000F00400019000BF00BF0420029002200B
:103AE00003900320059002A92648FDF7FBFB082060
:103AF000029000200390049002A92248FDF7F2FBF7
:103B00003AE022492068884236D100BF1C48C0698B
:103B100040F480201A49C8610846C06900F480203A
:103B2000019000BF00BF00BF0846806940F0080058
:103B300088610846806900F00800019000BF00BF5E
:103B400008150290022003900320059002A9104856
:103B5000FDF7C8FB4FF40060029000200390049032
:103B600002A90B48FDF7BEFB002211462720FEF7F5
:103B7000F8FB2720FEF7E8FB06B010BD0038014037
:103B8000001002400008014000440040004800408E
:103B9000000C01402DE9F84304460D4616461F4629
:103BA0004FF0000994F83A00202860D105B116B909
:103BB0000120BDE8F88300BF94F83800012801D146
:103BC0000220F6E7012084F8380000BF0020E063FF
:103BD000222084F83A00FDF72BFD8146A685E68574
:103BE00039E0E08D401EE085A068B0F5805F1BD114
:103BF0004B46002220212046009701F073FB08B1BC
:103C00000320D6E7A846206938B920684068C0F389
:103C10000800A8F80000AD1C1DE020684068C0B294
:103C2000A8F800006D1C16E04B460022202120461B
:103C3000009701F057FB08B10320BAE7206920B9CB
:103C40002068406805F8010B05E02068406800F036
:103C50007F0005F8010BE08D0028C2D1202084F8F8
:103C60003A0000BF002084F8380000BFA1E702201E
:103C70009FE710B5034693F83A0020282FD101B1F1
:103C80000AB9012010BD00BF93F83800012801D106
:103C90000220F7E7012083F8380000BF99629A8577
:103CA000DA850020D863222083F83A0000BF002084
:103CB00083F8380000BF1868C06840F480701C6842
:103CC000E0601868406940F001001C686061186895
:103CD000C06840F020001C68E0600020D2E70220AD
:103CE000D0E7000038B5044623492068884242D115
:103CF0006FF0200021490968086000BF0020009093
:103D00001E480068006800901C48006840680090E9
:103D100000BF00BF1A480078012809D1002005E043
:103D20000021184A1154184A1154401C0428F7DB8A
:103D300015480078402809D01348017810480278C7
:103D40000078401C0E4B18700E48815401200F491A
:103D500008600F48007818B10D480078012805D197
:103D600002200B490870012005490870012206490C
:103D70000248FFF77EFF38BD004800405003002096
:103D80002C000020240000202800002048000020F3
:103D9000400000202DE9F84304460D4616461F4614
:103DA0004FF0000994F8390020285CD105B116B90C
:103DB0000120BDE8F88300BF94F83800012801D144
:103DC0000220F6E7012084F8380000BF0020E063FD
:103DD000212084F83900FDF72BFC8146A684E68477
:103DE0002BE0E08C401EE084A068B0F5805F16D127
:103DF0004B46002280212046009701F073FA08B15B
:103E00000320D6E7A846B8F80000C0F308002168F0
:103E10004860206908B9AD1C0FE06D1C0DE04B46F1
:103E2000002280212046009701F05CFA08B10320AF
:103E3000BFE715F8010B21684860E08C0028D0D15D
:103E40004B46002240212046009701F04BFA08B172
:103E50000320AEE7202084F8390000BF002084F85A
:103E6000380000BFA5E70220A3E770471FB504464E
:103E700000200390029001F0DEFD41F28830FDF752
:103E80001DFA03A902A801F06AFD6420FDF716FAE5
:103E900001F007FEBDF80C0000909DF800008DF8C1
:103EA00004009DF801008DF80500BDF808000090A1
:103EB0009DF800008DF806009DF801008DF80700C0
:103EC000019820601FBD00BFFEE7014608684069F9
:103ED000C0F3802088B16FF480600A6850610420CC
:103EE000086400200863202081F83D0000BF002006
:103EF00081F83C0000BF012070470020FCE7000073
:103F00002DE9F84304460D4690461E46E76A2068B0
:103F1000006840F4806021680860042F04D0012FFD
:103F200002D017F5803F06D12068006840F4807009
:103F30002168086008E0206B112805D1206800681E
:103F400040F4807021680860434600224FF0011160
:103F50002046009600F013FA10B10320BDE8F88364
:103F60002069B0F5804F05D1E8B240F0010021682A
:103F7000086149E005F44070F02141EAE010216851
:103F80000861334642462949204600F036FA30B1EE
:103F9000206C042801D10120E0E70320DEE7E8B22D
:103FA00021680861334642462049891F204600F0B7
:103FB00024FA30B1206C042801D10120CEE703207F
:103FC000CCE700BF00200090206840690090206886
:103FD0008069009000BF00BF2068006840F48070D6
:103FE00021680860434600224FF0011120460096E8
:103FF00000F0C5F908B10320B0E705F44070F121E5
:1040000041EAE01021680861334642460749891FAA
:10401000204600F0F2F930B1206C042801D10120D3
:104020009CE703209AE7002098E7000008000100C1
:104030002DE9F84304460D4617469846E66A042ED5
:1040400004D0012E02D016F5803F06D1206800680A
:1040500040F480702168086008E0206B122805D1C8
:104060002068006840F48070216808603B460022A8
:104070004FF001112046CDF8008000F080F910B11A
:104080000320BDE8F8832069B0F5804F04D105F026
:10409000FE002168086117E005F44070F02141EA54
:1040A000E0102168086143463A461049204600F076
:1040B000A4F930B1206C042801D10120E1E70320EC
:1040C000DFE7E8B22168086143463A460749891F9D
:1040D000204600F092F930B1206C042801D1012073
:1040E000CFE70320CDE70020CBE700000800010068
:1040F0002DE9F84304460F4615469946DDE9088642
:104100002068006840F480602168086020680068CA
:1041100040F4807021680860434600224FF001118E
:104120002046009600F02BF910B10320BDE8F8837B
:1041300007F0FE00216808613346424641492046A7
:1041400000F05BF930B1206C042801D10120EDE7CB
:104150000320EBE700BF002000902068406900903A
:1041600020688069009000BF00BF3246414620466B
:1041700000F0D0F960B1206C042807D120680068F5
:1041800040F40070216808600120CFE70320CDE7EC
:10419000B9F1010F03D1E8B22168086119E0C5F354
:1041A00007202168086132464146204600F0B2F9F6
:1041B00060B1206C042807D12068006840F40070CA
:1041C000216808600120B1E70320AFE7E8B2216869
:1041D000086132464146204600F09CF960B1206CEF
:1041E000042807D12068006840F400702168086046
:1041F00001209BE7032099E72068006840F4807065
:1042000021680860434600224FF0011120460096C5
:1042100000F0B5F808B1032088E7F8B240F00100DB
:1042200021680861334642460649204600F0E5F819
:1042300030B1206C042801D1012077E7032075E715
:10424000002073E7020001002DE9F8430446884688
:1042500015469946DDE908672068006840F48070DB
:1042600021680860334600224FF001112046009774
:1042700000F085F810B10320BDE8F88308F0FE00D7
:10428000216808613B4632462649204600F0B5F8D1
:1042900030B1206C042801D10120EDE70320EBE7C9
:1042A00000BF00200090206840690090206880696D
:1042B000009000BF00BF3A463146204600F02AF980
:1042C00060B1206C042807D12068006840F40070B9
:1042D000216808600120CFE70320CDE7B9F1010F85
:1042E00003D1E8B22168086119E0C5F3072021680D
:1042F00008613A463146204600F00CF960B1206C66
:10430000042807D12068006840F400702168086024
:104310000120B1E70320AFE7E8B22168086100207F
:10432000AAE700000200010070B504460D461646DB
:104330001DE02046FFF7C9FD08B1012070BD681CD3
:10434000A8B125B1FDF774F9801BA8420FD9206CE4
:1043500040F02000206400202063202084F83D00ED
:1043600000BF002084F83C0000BF0320E6E720687F
:104370004069C0F380000028DBD00020DEE72DE993
:10438000F04104460D4617461E46DDF8188017E03A
:10439000701CA8B12EB1FDF74BF9A0EB0800B0429C
:1043A0000ED900202063202084F83D00002084F8EE
:1043B0003E0000BF84F83C0000BF0320BDE8F08150
:1043C000C5F3074001280AD120684069A9B2084016
:1043D000A9B2884201D101200BE0002009E0206849
:1043E0008069A9B20840A9B2884201D1012000E049
:1043F0000020B842CCD00020E0E72DE9F04104468F
:104400000D4616461F4631E020684069C0F3802003
:10441000C0B12068006840F40070216808606FF443
:1044200080602168486104202064002020632020EF
:1044300084F83D0000BF002084F83C0000BF01204C
:10444000BDE8F081701C88B126B1FDF7F1F8C01B02
:10445000B0420BD900202063202084F83D0000BF2B
:10446000002084F83C0000BF0320E9E7C5F30740C3
:1044700001280AD120684069A9B20840A9B288423F
:1044800001D101200BE0002009E020688069A9B279
:104490000840A9B2884201D1012000E00020002894
:1044A000B2D00020CCE770B504460D46164629E090
:1044B00020684069C0F3001080B16FF010002168DF
:1044C0004861002020642063202084F83D0000BF64
:1044D000002084F83C0000BF012070BD25B1FDF72D
:1044E000A7F8801BA8420DD9206C40F02000206462
:1044F000202084F83D0000BF002084F83C0000BF6D
:104500000320EAE720684069C0F380100028CFD07C
:104510000020E2E770B504460D4616461DE0204631
:10452000FFF7D3FC08B1012070BD681CA8B125B10C
:10453000FDF77EF8801BA8420FD9206C40F02000C8
:10454000206400202063202084F83D0000BF00206C
:1045500084F83C0000BF0320E6E720684069C0F310
:10456000C0100028DBD00020DEE7000010B50024DA
:1045700010E0002210210948FDF754F8C820FCF78C
:104580009DFE012210210548FDF74CF8C820FCF7DC
:1045900095FE641C052CECDB10BD000000100140F2
:1045A00010B5002210210648FDF73CF84FF4487082
:1045B000FCF784FE012210210148FDF733F810BDFD
:1045C0000010014010B50446052C49D2DFE804F084
:1045D00003141D263700002201212248FDF722F88E
:1045E0000A20FCF76BFE002202211E48FDF71AF894
:1045F0000A20FCF763FE33E0002202211948FDF790
:1046000011F80A20FCF75AFE2AE000220121154881
:10461000FDF708F80A20FCF751FE21E000220421F2
:104620001048FCF7FFFF0A20FCF748FE0022022199
:104630000C48FCF7F7FF0A20FCF740FE10E00022D0
:1046400004210848FCF7EEFF0A20FCF737FE0022A1
:1046500001210448FCF7E6FF0A20FCF72FFE00BF0B
:1046600000BF10BD0010014010B50446062C52D208
:10467000DFE804F003141D263748012211462748BD
:10468000FCF7D0FF0A20FCF719FE01220221234883
:10469000FCF7C8FF0A20FCF711FE3CE001220221D2
:1046A0001E48FCF7BFFF0A20FCF708FE33E001229A
:1046B00011461A48FCF7B6FF0A20FCF7FFFD2AE076
:1046C000012204211548FCF7ADFF0A20FCF7F6FD96
:1046D000012202211148FCF7A5FF0A20FCF7EEFD9C
:1046E00019E0012204210D48FCF79CFF0A20FCF789
:1046F000E5FD012211460948FCF794FF0A20FCF76A
:10470000DDFD08E0012204210448FCF78BFF0A20AC
:10471000FCF7D4FD00BF00BF10BD00000010014039
:1047200010B5012210210348FCF77CFF1420FCF790
:10473000C5FD10BD0010014010B500221021034836
:10474000FCF770FF1420FCF7B9FD10BD001001400C
:104750000EB50020009001900290114811490860A8
:10476000002110488160C16041614FF46021C16146
:1047700000200C49486001210A480161FCF72AFB2E
:1047800008B1FCF771FA012000900190002002901E
:1047900069460448FCF76AFA08B1FCF765FA0EBDF1
:1047A000002401403C01002000B585B000200190AC
:1047B00002900390049000BF2548806940F01000EB
:1047C000234988610846806900F01000009000BF0E
:1047D00000BF00BF0846806940F02000886108469D
:1047E000806900F02000009000BF00BF00BF0846B5
:1047F000806940F0040088610846806900F0040088
:10480000009000BF00BF00BF0846806940F008006C
:1048100088610846806900F00800009000BF00BF72
:10482000002207210B48FCF7FDFE01221021094858
:10483000FCF7F8FE17200190012002900020039061
:104840000220049001A90348FCF74CFD05B000BD0F
:10485000001002400010014010B50B480B490860E1
:104860000B484860002109488160C1604FF48041D5
:104870000161002141618161C1610162FCF7DEFEDD
:1048800008B1FCF7F1F910BD005400406C010020A4
:10489000A086010010B50748074908600620486057
:1048A00040F6FF7104488160FDF790FC08B1FCF709
:1048B000DBF910BD00300040C00100201CB5002015
:1048C0000190009019481A4908604FF0FF30486085
:1048D000002117488160FEF735FB08B1FCF7C4F9E9
:1048E00001208DF8040010208DF8050000208DF8BF
:1048F0000600012201A90E48FEF7B4FC08B1FCF73E
:10490000B3F901208DF8000010208DF80100282057
:104910008DF8020019208DF8030001226946044831
:10492000FEF724FC08B1FCF79FF91CBD00280040ED
:10493000CC01002010B50E480E4908604FF482707B
:10494000486000210B488160C160016141614FF402
:10495000007181613821C16100210162416281627F
:104960000A21C162FEF79AFD08B1FCF77DF910BD7E
:1049700000300140E00100201CB5002000900190B3
:10498000104811490860114800681149B0FBF1F066
:10499000401E0D49486000210B4881600C49C160F0
:1049A00000218161FEF735FE08B1FCF75DF90020BA
:1049B0000090019069460448FEF7FAFD08B1FCF743
:1049C00053F91CBD00100040900200207C00002024
:1049D00040420F0010B50B480B4908604FF41650C9
:1049E0004860002108488160C16001610C2141617B
:1049F00000218161C161FEF7DBFF08B1FCF734F9EA
:104A000010BD000000380140D002002010B50B4856
:104A10000B4908604FF41650486000210848816037
:104A2000C16001610C21416100218161C161FEF71A
:104A3000BFFF08B1FCF718F910BD000000440040AA
:104A40001003002010B50B480B4908604FF41650B6
:104A50004860002108488160C16001610C2141610A
:104A600000218161C161FEF7A3FF08B1FCF7FCF8EA
:104A700010BD0000004800405003002000BFFEE7CA
:104A80007047000002480068C0F302207047000031
:104A90000CED00E010B5002807DA0A07140E054AED
:104AA00000F00F031B1FD45403E00A07130E024A41
:104AB000135410BD18ED00E000E400E07047000062
:104AC00008B508490968C9084FF47A72B1FBF2F1D8
:104AD0004143009100BF00BF00994A1E0092002987
:104AE000F9D108BD7C00002010B50348FEF780F91D
:104AF0000148FEF789F910BDCC010020014600BF36
:104B0000080900EB8000420001F00F001044C0B221
:104B100070470146002203E0521CA1F10A00C1B215
:104B20000A29F9D2100741EA106070472DE9F047D1
:104B300006468846002700240025A146F77B747BA3
:104B4000B57B00BF40E0012C0BD0032C09D0052C15
:104B500007D0072C05D0082C03D00A2C01D00C2C30
:104B60000CD11F2D01D26D1C2CE00C2C02D0641C2A
:104B7000012527E0012401257F1C23E0042C05D01A
:104B8000062C03D0092C01D00B2C06D11E2D01D2EE
:104B90006D1C17E0641C012514E0022C12D11C2DA1
:104BA00001D26D1C0EE01C2D08D1B8B200F053F8F4
:104BB00008B16D1C06E0641C012503E01D2D01D128
:104BC000641C012509F10109C145BCD3F773747355
:104BD000B573EAB2E1B2384600F07CF83073BDE854
:104BE000F08770B504460025FCF722FD054607E076
:104BF000FCF71EFD401BB0F57A7F01D9032070BD84
:104C00002068406800F020000028F1D0206840684B
:104C100040F01000216848600020F0E770B50446BD
:104C200000252068406820F0100021684860FCF7EB
:104C3000FFFC054607E0FCF7FBFC401BB0F57A7F64
:104C400001D9032070BD2068406800F020000028D2
:104C5000F1D00020F6E7014601F0030008B1002082
:104C600070476420B1FBF0F200FB121008B1012084
:104C7000F6E74FF4C870B1FBF0F200FB121008B970
:104C80000120EDE70020EBE7014600220023086841
:104C9000006A82B20868406A83B243EA0240704701
:104CA00030B5014600220023002400200D68AD69C4
:104CB000AAB20D68ED69ACB20D68AD69ABB29A42AB
:104CC00005D00D68ED6963F31F45284601E044EA0D
:104CD000024030BDF0B504460B460021002504F526
:104CE000FA61032B1BD2C3EBC30000EB03100926B0
:104CF000B0FBF6F01044001D4618481E06EB900667
:104D00006427B0FBF7F0361A481EBF00B0FBF7F07F
:104D100030440726B0FBF6F706FB17051AE0C3EB95
:104D2000C30000EB03100926B0FBF6F01044001D91
:104D3000084400EB91006426B1FBF6F6801B4FF4AB
:104D4000C876B1FBF6F63044801E0726B0FBF6F7B6
:104D500006FB1705E8B2F0BD70B504460D46002607
:104D60002046FFF73EFF08B101260AE0280C216823
:104D70000862A8B2216848622046FFF74FFF00B1E1
:104D80000126304670BD70B504460D46002620460B
:104D9000FFF727FF08B101260AE0280C2168886187
:104DA000A8B22168C8612046FFF738FF00B101268C
:104DB000304670BD10B50248FEF7E4FA10BD0000A1
:104DC0003802002070B505466C6A0020E087E08656
:104DD0002046FEF7D5FA70BD7047000010B50A48AE
:104DE000006801280BD1FBF799FE0848FDF716FA79
:104DF00000200549086001200549087002E00020F4
:104E00000449087010BD000048000020C0010020C7
:104E10002C00002040000020704700B595B02821EC
:104E20000BA8FBF7CAF9142106A8FBF7C6F918214D
:104E30006846FBF7C2F909200B904FF480300C90C4
:104E400000200D9001200F90119002201290C103BC
:104E500013914FF4E01114910BA8FDF78BFD08B1ED
:104E6000FBF702FF0F200690022007900020089019
:104E70004FF48060099000200A90022106A8FDF7F7
:104E8000FFFB08B1FBF7F0FE032000904FF4007029
:104E90000190800102906846FDF75AFB08B1FBF7CC
:104EA000E3FE15B000BD00001148006840F00100AD
:104EB0000F490860084640680E4908400C494860A0
:104EC000084600680C49084009490860084600681F
:104ED00020F4802008600846406820F4FE00486006
:104EE0004FF41F008860C803044908607047000041
:104EF000001002400000FFF8FFFFF6FE08ED00E0A2
:104F000010B50248FEF7D2FB10BD00009003002050
:104F100010B50248FEF7CAFB10BD00009002002049
:104F2000002202681F4B98420ED01F4B98420BD0B4
:104F3000B0F1804F08D01D4B984205D01C4B9842D1
:104F400002D01C4B984203D122F070024B681A43E6
:104F5000144B98420ED0144B98420BD0B0F1804FB6
:104F600008D0124B984205D0114B984202D0114BF9
:104F7000984203D122F44072CB681A4322F0800297
:104F80004B691A4302608B68C3620B688362054BEE
:104F9000984202D0044B984201D10B69036301236C
:104FA00043617047002C0140003401400004004080
:104FB00000080040000C004070B505466C6A0020F7
:104FC000E085E0842046FEF74CFC70BD0168C968AE
:104FD00021F490710268D1600168496921F00101F2
:104FE00002685161202180F83A10704710B50446DC
:104FF0002068C06820F040002168C860202084F844
:1050000039002046FEF731FF002010BD70B5044680
:1050100094F83A0022284AD1A068B0F5805F13D1F5
:10502000A56A206940B920684068C0F3080028805C
:10503000A06A801CA06219E020684068C0B2288085
:10504000A06A401CA06211E0206938B9206840685D
:10505000C1B2A26A501CA062117007E020684068CB
:1050600000F07F01A26A501CA0621170E08D401E0A
:1050700080B2E085C8B92068C06820F020002168AF
:10508000C8602068C06820F480702168C86020680B
:10509000406920F0010021684861202084F83A002E
:1050A0002046FEF71FFE002070BD0020FCE7022016
:1050B000FAE700002DE9F041044600252068006968
:1050C00020F44050E1680843216808612169A06824
:1050D00008436169084305432068C06841F20C61D8
:1050E000884328432168C8602068406920F44070E4
:1050F000A1690843216848615F49206888425CD102
:10510000FDF7DEFB00EBC00101EB001061688900D8
:10511000B0FBF1F6FDF7D4FB00EBC00101EB001092
:1051200061688900B0FBF1F06421B0FBF1F000EBA5
:10513000C00101EB0010A6EB8000322101EB001052
:105140006421B0FBF1F000F0F006FDF7B9FB00EBD5
:10515000C00101EB001061688900B0FBF1F064212F
:10516000B0FBF1F006EB0016FDF7AAFB00EBC00167
:1051700001EB001061688900B0FBF1F7FDF7A0FBBF
:1051800000EBC00101EB001061688900B0FBF1F099
:105190006421B0FBF1F000EBC00101EB0010A7EBC4
:1051A0008000322101EB00106421B0FBF1F000F02F
:1051B0000F003044216888605BE0FDF771FB00EB75
:1051C000C00101EB001061688900B0FBF1F6FDF74A
:1051D00067FB00EBC00101EB001061688900B0FBC8
:1051E000F1F06421B0FBF1F000EBC00101EB001025
:1051F000A6EB8000322101EB00106421B0FBF1F03E
:1052000000F0F006FDF74CFB00EBC00101EB0010D5
:1052100061688900B0FBF1F06421B0FBF1F006EBAE
:105220000016FDF73DFB00EBC00101EB00106168CB
:105230008900B0FBF1F7FDF733FB00EBC00101EB98
:10524000001061688900B0FBF1F06421B0FBF1F05F
:1052500000EBC00101EB0010A7EB8000322101EB55
:1052600000106421B0FBF1F000F00F003044216821
:105270008860BDE8F081000000380140014691F8E7
:10528000390021282CD18868B0F5805F0FD10A6AD7
:105290001088C0F308000B685860086918B9086ADC
:1052A000801C086209E0086A401C086205E00B6A7D
:1052B000581C086218780B685860C88C401E80B271
:1052C000C88458B90868C06820F080000B68D860AE
:1052D0000868C06840F040000B68D8600020704744
:1052E0000220FCE72DE9F04104460D46174698469A
:1052F000069E21E0701CF8B12EB1FCF799F9A0EBE5
:105300000800B04218D92068C06820F4D070216825
:10531000C8602068406920F00100216848612020B1
:1053200084F8390084F83A0000BF002084F838007F
:1053300000BF0320BDE8F081206800682840A84233
:1053400001D1012000E00020B842D3D00020F1E7D5
:1053500010B50848C08D401C0649C8850846FEF7B0
:1053600081FA0448806A401E024988620846FEF7B6
:10537000B9FC10BD5003002000BFFEE7490050EA11
:10538000C12018BF04204A0D18BF40F0010040F2B0
:10539000FF72B2EB515F08BF40F00200012808BF66
:1053A000052070472DE9F0414F1E00EBC701044670
:1053B000D1E9000115461E4637F006020DD02A46F7
:1053C0003346FBF71CF87F1E04EBC703D3E9002329
:1053D000FAF76EFF37F00602F1D1022F25D0042F25
:1053E00013D0062F18BFBDE8F0812A463346FBF7DD
:1053F00006F8D4E90A23FAF75BFF2A463346FAF7A0
:10540000FEFFD4E90823FAF753FF2A463346FAF79A
:10541000F6FFD4E90623FAF74BFF2A463346FAF79C
:10542000EEFFD4E90423FAF743FF2A463346FAF79E
:10543000E6FFD4E90223FAF73BFF2A463346FAF7A0
:10544000DEFFD4E90023BDE8F041FAF731BF0000E8
:105450000022134610460149FBF743B80000F03F15
:10546000FAF726BF0022134610461146FBF739B85B
:1054700040F2013200204FF0E041FBF7E0B90000BC
:10548000024A00201107FBF7DAB9000001FDFFFF17
:1054900002E008C8121F08C1002AFAD170477047FD
:1054A000002001E001C1121F002AFBD1704700005B
:1054B00001490860704700008000002010B50020FE
:1054C00001F0A8F8034908700846007800F01000C1
:1054D00010BD00005800002010B5E02001F09AF83F
:1054E00005490870002001F095F803490870084646
:1054F000007800F0010010BD5900002070B50120B7
:10550000FFF7B2F83220FBF7D9FEFBF7E5FA0646C3
:10551000C820FBF7D3FE012E02D1FFF741F801E0CE
:10552000FFF724F80120FFF74DF84FF47A70FBF7EE
:10553000C5FE3048FCF772FE0220FFF795F83220D6
:10554000FBF7BCFE00F092FA054600F0AAFAC8206C
:10555000FBF7B4FE15B9FFF723F801E0FFF706F8F3
:105560000220FFF72FF84FF47A70FBF7A7FE2148CF
:10557000FCF754FE0420FFF777F83220FBF79EFE7D
:10558000FFF70EF80420FFF71DF84FF47A70FBF7D1
:1055900095FE1848FCF742FE0320FFF765F832201D
:1055A000FBF78CFE14480068012806D1002108464C
:1055B00000F0CCF800F024F80446104800680128F8
:1055C00006D101F0BEFCC4B24FF4FA70FBF776FED0
:1055D00014B1FEF7E5FF01E0FEF7C8FF0320FEF778
:1055E000F1FF4FF47A70FBF769FE0248FCF716FEF4
:1055F00070BD0000C0010020040000200800002051
:105600001FB54FF4FA60FBF759FE202001F002F8B5
:105610000446812C02D0002004B010BDFFF74EFFDD
:10562000012801D10020F7E7F42003906420012332
:1056300003AAB42100901648FCF75CFA6420FBF73B
:105640003DFEFFF749FF012801D10020E4E71148A2
:10565000007801F03DFA0A20FBF730FE00F024F854
:105660000D4802900D48019001A902A800F09AF897
:10567000DDE9010101F04EFA4FF00060C078084901
:1056800008704FF000600079064908700120C3E7F8
:105690006C010020680000200000C8410000824228
:1056A0004C0000204E00002010B5012000F0B2FF99
:1056B000044624F008042146012001F087FD10BDB6
:1056C0002DE9FC5F00F0BCFF019000210198FAF782
:1056D000F7FF02D20020BDE8FC9F00200090144993
:1056E0000198FAF7A7FD8246FAF7BAFF0746114A72
:1056F000114BFAF784FE0546FAF7C5FF00900098B3
:10570000FAF7AEFF05460D4A0D4B00F069FA074661
:105710000C4A0D4BFAF773FE8246FAF7B4FF0446C3
:105720002046FAF789FF1FFA80F94846D3E70000C0
:10573000001EF547A323B9FC87F4EF3F3D9B559F1F
:10574000ABAD0240865AD3BCE3F422407FB5064697
:105750000D464FF48054012E01D144F48064012D94
:1057600002D0022D06D102E044F4807402E044F439
:10577000007400BF00BF20128DF80C00E0B28DF85D
:105780000D004FF47A70022103AA0123CDE9002114
:1057900002900A4680210248FCF71AFC7FBD0000F7
:1057A0006C0100202DE9F04F87B0044689460020A7
:1057B00002904FF47A70012302AA802100902548BC
:1057C000FCF798F90F20FBF779FD4FF47A7004236A
:1057D00005AA802100901F48FBF7EEFF9DF81500F9
:1057E0009DF8141040EA012004909DF817009DF8E0
:1057F000161040EA012003900498FAF7F7FE0746D6
:105800000022154BFAF76DFE05460022134BFAF7FE
:10581000F6FD0022124BCDE90001FAF7EAFD8246BF
:10582000FAF731FF20600398FAF7E0FE07460022FE
:10583000094BFAF756FE054600220A4BFAF7DFFD40
:105840008246FAF720FFC9F80000002007B0BDE843
:10585000F08F00006C0100200000F04000A06440C8
:10586000008044400000594010B502460B46002419
:10587000002103E0505C204484B2491C9942F9DBCA
:105880006042C0B210BD2DE9FF4782460F469046E8
:105890001D460221684600F01FF9022803D00220AD
:1058A00004B0BDE8F0879DF80000962805D19DF86A
:1058B0000100962801D10120F2E79DF80000402860
:1058C0002CD19DF80140601E28600E2C02D2286861
:1058D000B84201DD0220E3E7611C0DF1020000F097
:1058E000FBF8611C884201D00220D9E79DF8020034
:1058F00088F800000DF1030150462A68FAF744FCCD
:10590000A01C1DF80090A11C6846FFF7ADFF0646DD
:10591000B14501D00320C3E70020C1E70220BFE763
:1059200008B50221684600F0D7F8022801D002200D
:1059300008BD9DF80000A52805D19DF80100A52807
:1059400001D10020F4E79DF80000962805D19DF8CC
:105950000100962801D10120EAE70220E8E72DE9BD
:10596000FF4104460D460027B84600221146042098
:1059700000F038F8061E03DA304604B0BDE8F081C6
:105980006B4601AA082102A8FFF77DFF30B101286C
:105990001ED0022823D0032820D11CE09DF804004B
:1059A000042802D10098042801D00220E5E79DF8E0
:1059B00009109DF8080001EB00289DF80B109DF8D8
:1059C0000A0001EB0027A4F800802F800020D4E714
:1059D0006FF00200D1E76FF00500CEE700BF6FF077
:1059E0000400CAE770B5C2B005460E4614462EB98B
:1059F000002C03DD6FF0010042B070BD68208DF80F
:105A00000400601CC0B28DF805008DF80650002C13
:105A100005DD224631460DF10700FAF7B5FBE11C22
:105A200001A8FFF721FFE11C01AA5054211D01A884
:105A300000F064F8E0E710B5002211460120FFF7FE
:105A4000D1FF041E01DA204610BDFFF769FF20B127
:105A5000012804D0022805D105E00020F4E76FF00A
:105A60000200F1E700BF6FF00400EDE710B500227F
:105A700011462020FFF7B6FF041E01DA204610BDB4
:105A8000FFF74EFF20B1012804D0022805D105E020
:105A90000020F4E76FF00200F1E700BF6FF00400B0
:105AA000EDE710B5002211460220FFF79BFF041E10
:105AB00001DA204610BDFFF733FF20B1012804D0E2
:105AC000022805D105E00020F4E76FF00200F1E7BD
:105AD00000BF6FF00400EDE770B504460D46AAB2B2
